:0400000002001132B7
:03000B0002008B65
:20006A00E4F508F509F50AF50BF50CF50D750E0FF50F75106CF511751201C200C2010200F9
:01008A000E67
:03000E00020347A3
:20008B00C021C0E0C0F0C082C083C007C006C005C004C003C002C001C000C0D075D0007539
:2000AB008CEE758A00AE0CAF0D74012EF50CE43FF50D3001030201E3AF90BF1F030201AE92
:2000CB00BF2F03020193BF33030201C6BF3703020161BF3B02804CBF3D02802BBF3E028083
:2000EB000DBF3F0280030201E1C2010201E3D20175826112040C75A0807508017509007585
:20010B001061D2000201E3D20175826212040C750E03750F00750802750900751062C200AD
:20012B000201E3E5126013D20175826412040C7508077509007510648011D2017582631259
:20014B00040C750803750900751063750E03750F00C2000201E3E5126013D2017582641242
:20016B00040C7508077509007510648011D20175826512040C750804750900751065750E2B
:20018B0003750F00C2008050D20175826612040C750805750900751066750E03750F00C232
:2001AB00008035D20175826712040C75A020750806750900751067D200801DD2017582646D
:2001CB0012040C750807750900751064750E03750F00C2008002C2017428B50C06E4B50DED
:2001EB000280028008C20185108212040C850E13850F1490000A1204C9AE82AF83C3E50C0F
:20020B009EE50D64808FF063F08095F04003020294AE08E509FF30E703020324C374099EE9
:20022B0074808FF063F08095F05003020324EEF5F0240B83F582E5F0240E83F583E47324F3
:20024B005E646A70767C82888E0302020202020202020275A08002032475A0800203247567
:20026B00A0C002032475A06002032475A02002032475A02002032475A04002032475A0807D
:20028B0002032475A020020324C3E50E950CE50F6480850DF063F08095F0400302031F85D7
:2002AB000E13850F149000141204C9AE82AF83C3E50C9EE50D64808FF063F08095F0400343
:2002CB0002031FAE08E509FF30E703020324C374099E74808FF063F08095F05003020324E4
:2002EB00EEF5F0240B83F582E5F0240E83F583E4732415101010101A1010100303030303CC
:20030B00030303030375A000800F75A080800A75A0208005E4F50CF50D85080A85090BD05F
:20032B00D0D000D001D002D003D004D005D006D007D083D082D0F0D0E0D021321203971250
:20034B0003DA1203E6120440D2AF20010B12036E2001F712044E80F23001EF12036E12048D
:20036B001580E77E007F007CFF7D00EC24FFFAED34FFFB8A048B05EA4B70F00EBE00010F4E
:20038B00C3EE9433EF6480948040DC227590FF75A00012036E12036E75A0E012036E75A009
:2003AB008012036E12036E12036E12036E75A04012036E12036E12036E12036E75A02012FE
:2003CB00036E12036E12036E12036E75A00022758920758DFD759850D28E22E511701385E7
:2003EB009911C29875A0A012036E75A00012036E80E97478B511E475827912040C75110007
:20040B002285829910990280FB22C299859911C2987478B5110675827902040C746DB51102
:20042B000280057468B5110475120022746CB5110375120122438901758CEE758A00D28C6F
:20044B00D2A9223000557401B50A0614B50B02800D7408B50A06E4B50B02800280132001B5
:20046B0010750808750900750E0A750F0075106E227406B50A06E4B50B02800C7409B50A8B
:20048B0006E4B50B02800122200132750809750900750E0A750F0075107522C200E4F508DB
:1E04AB00F50975106C75A0A012036E12036E12036E75A00012036E12036E02036E2256
:06004000E478FFF6D8FD94
:20001E007900E94400601B7A009004EA780175A000E493F2A308B8000205A0D9F4DAF2759A
:02003E00A0FF21
:1D04C900E5828513F0A4C582C0F08514F0A4D0F025F0C5838513F0A42583F58322D4
:200046007800E84400600A790175A000E4F309D8FC7800E84400600C7900900001E4F0A3B8
:04006600D8FCD9FAEF
:0D0011007581211204E6E582600302000EF5
:0404E60075820022F9
:00000001FF
