:0400000002001132B7
:03000B0002008B65
:10006A00E4F508F509F50AF50BF50CF50D750E0F13
:10007A00F50F75106CF511751201C200C20102006C
:01008A000E67
:03000E00020347A3
:10008B00C021C0E0C0F0C082C083C007C006C0055D
:10009B00C004C003C002C001C000C0D075D0007541
:1000AB008CEE758A00AE0CAF0D74012EF50CE43F8F
:1000BB00F50D3001030201E3AF90BF1F030201AE48
:1000CB00BF2F03020193BF33030201C6BF370302E5
:1000DB000161BF3B02804CBF3D02802BBF3E0280C3
:1000EB000DBF3F0280030201E1C2010201E3D20115
:1000FB007582611203C475A08075080175090075BE
:10010B001061D2000201E3D2017582621203C47541
:10011B000E03750F00750802750900751062C20099
:10012B000201E3E5126013D2017582641203C475F8
:10013B0008077509007510648011D201758263126E
:10014B0003C4750803750900751063750E03750FED
:10015B0000C2000201E3E5126013D2017582641242
:10016B0003C47508077509007510648011D20175F9
:10017B0082651203C4750804750900751065750E48
:10018B0003750F00C2008050D2017582661203C442
:10019B00750805750900751066750E03750F00C29D
:1001AB00008035D2017582671203C475A0207508D3
:1001BB0006750900751067D200801DD20175826427
:1001CB001203C4750807750900751064750E037565
:1001DB000F00C2008002C201743CB50C06E4B50DE1
:1001EB000280028008C2018510821203C4850E139F
:1001FB00850F1490000A1204D9AE82AF83C3E50CAD
:10020B009EE50D64808FF063F08095F04003020251
:10021B0094AE08E509FF30E703020324C374099E7B
:10022B0074808FF063F08095F05003020324EEF599
:10023B00F0240B83F582E5F0240E83F583E473241D
:10024B005E646A70767C82888E030202020202026E
:10025B0002020275A08002032475A080020324759C
:10026B00A0C002032475A06002032475A020020322
:10027B002475A02002032475A04002032475A080DE
:10028B0002032475A020020324C3E50E950CE50F91
:10029B006480850DF063F08095F0400302031F85A9
:1002AB000E13850F149000141204D9AE82AF83C3C2
:1002BB00E50C9EE50D64808FF063F08095F04003B4
:1002CB0002031FAE08E509FF30E703020324C374E2
:1002DB00099E74808FF063F08095F0500302032425
:1002EB00EEF5F0240B83F582E5F0240E83F583E421
:1002FB00732415101010101A1010100303030303AE
:10030B00030303030375A000800F75A080800A759B
:10031B00A0208005E4F50CF50D85080A85090BD0A6
:10032B00D0D000D001D002D003D004D005D006D05D
:10033B0007D083D082D0F0D0E0D021321203F81254
:10034B00039212039E12043ED2AF200109120369DD
:10035B0020010312044C1203691203CD80EC7E00C2
:10036B007F007CFF7D00EC24FFFAED34FFFB8A0459
:10037B008B05EA4B70F00EBE00010FC3EE9433EF0A
:10038B006480948040DC22758920758DFD759850B2
:10039B00D28E22E5117013859911C29875A0A01207
:1003AB00036975A00012036980E97478B511E475CF
:1003BB0082791203C47511002285829910990280EB
:1003CB00FB22C299859911C2987478B51106758272
:1003DB00790203C4746DB5110280057468B51104FC
:1003EB0075120022746CB51103751201227590FF02
:1003FB0075A00075A00012036912036975A0E012C5
:10040B00036975A080120369120369120369120351
:10041B006975A0401203691203691203691203691B
:10042B0075A020120369120369120369120369751F
:10043B00A00022438901758CEE758A00D28CD2A95B
:10044B00223000617401B50A0614B50B02800D74DD
:10045B0008B50A06E4B50B02800280192001167557
:10046B00080875090075826E1203C4750E0A750FA4
:10047B000075106E227406B50A06E4B50B02800CEB
:10048B007409B50A06E4B50B0280012220013E7502
:10049B0008097509007582751203C4750E0A750F6C
:1004AB000075107522C200E4F508F50975106C751E
:1004BB00826C1203C475A0A01203691203691203A4
:0E04CB006975A0001203691203690203692219
:06004000E478FFF6D8FD94
:10001E007900E94400601B7A009004FA780175A01B
:10002E0000E493F2A308B8000205A0D9F4DAF27541
:02003E00A0FF21
:1004D900E5828513F0A4C582C0F08514F0A4D0F09C
:0D04E90025F0C5838513F0A42583F583223B
:100046007800E84400600A790175A000E4F309D855
:10005600FC7800E84400600C7900900001E4F0A30D
:04006600D8FCD9FAEF
:0D0011007581211204F6E582600302000EE5
:0404F60075820022E9
:00000001FF
