:03000000020006F5
:03005F0002000399
:0300030002006296
:100062001200C27582581200CE75A0AA12009975AC
:10007200A05512009980EC7EFF7F00C007C00612D7
:100082000099D006D007EE24FFFCEF34FFFD8C066A
:100092008D07EC4D70E5227E007F007CFF7D00EC39
:1000A20024FFFAED34FFFB8A048B05EA4B70F00E55
:1000B200BE00010FC3EE94FFEF6480948040DC2207
:1000C200758920758DFD759850D28E228582991082
:0500D200990280FB22F1
:06003500E478FFF6D8FD9F
:100013007900E94400601B7A009000DB780175A049
:1000230000E493F2A308B8000205A0D9F4DAF2754C
:02003300A0FF2C
:10003B007800E84400600A790175A000E4F309D860
:10004B00FC7800E84400600C7900900001E4F0A318
:04005B00D8FCD9FAFA
:0D0006007581071200D7E582600302000338
:0400D700758200220C
:00000001FF
