:0400000002001132B7
:03000B0002007D73
:13006A00E4F508F509F50AF50BF50C750D14F50E02000EFB
:03000E0002019A52
:20007D00C0E0C0F0C082C083C007C006C0D075D000758C4B758AFDAE0BAF0C74012EF50BCD
:20009D00E43FF50CC3E50D950BE50E6480850CF063F08095F04064E50930E70302018BC31D
:2000BD007406950874808509F063F08095F0500302018BE50875F003A49000DA730200EF9A
:2000DD000200F50200FB02010102010702010D02011375A0A002018B75A08002018B75A060
:2000FD008002018B75A04002018B75A04002018B75A02002018B75A0208073C3E50D950BCF
:20011D00E50E6480850CF063F08095F0505BE50D25E0FEE50E33FFC3E50B9EE50C64808F98
:20013D00F063F08095F05041E50920E741C37406950874808509F063F08095F04030E50892
:20015D0075F003A49001657302017702017702017C02017702017702018175A000800F7509
:20017D00A080800A75A0208005E4F50BF50CD0D0D006D007D083D082D0F0D0E0327590FF81
:20019D00E4F5A0F508F50912023275A00012020AE50A701385990AC29875A0A01201E17543
:2001BD00A0001201E180E97478B50AE4758279120216750A00120328D2A9D2AF12027D12A1
:2001DD00021F80F87E007F007CFF7D00EC24FFFAED34FFFB8A048B05EA4B70F00EBE0001D0
:2001FD000FC3EE9433EF6480948040DC22758920758DFD759850D28E22858299109902806F
:20021D00FB22C29985990AC2987478B50A067582790202162275A0001201E11201E112015A
:20023D00E11201E175A0E01201E11201E11201E11201E175A0801201E11201E11201E11284
:20025D0001E175A0401201E11201E11201E11201E175A0201201E11201E11201E10201E185
:20027D00AF90BF1F03020315BF2F03020302BF3702805FBF3B028047BF3D02802FBF3E02E9
:20029D008017BF3F0280012275826C120216750D0AE4F50EF508F5092275826112021675F3
:2002BD000D78750E0075080175090022758262120216750802750900750D05750E002275DA
:2002DD008263120216750D0A750E0075080375090022758265120216750804750900750DBC
:2002FD000A750E0022758266120216750805750900750D05750E002275826712021675087A
:19031D0006750900750D78750E0022438901758C4B758AFDD28CD2A92294
:06004000E478FFF6D8FD94
:20001E007900E94400601B7A0090033A780175A000E493F2A308B8000205A0D9F4DAF2754B
:02003E00A0FF21
:200046007800E84400600A790175A000E4F309D8FC7800E84400600C7900900001E4F0A3B8
:04006600D8FCD9FAEF
:0D00110075810E120336E582600302000EB9
:0403360075820022AA
:00000001FF
