:0400000002001132B7
:03000B0002008769
:10006A00E4F508F509F50AF50BF50C750D01F50E21
:0D007A00F50F75100FF51175126C02000ED8
:03000E00020317D3
:10008700C020C0E0C0F0C082C083C007C006C00562
:10009700C004C003C002C001C000C0D075D0007545
:1000A7008CEE758A00AE0EAF0F74012EF50EE43F8D
:1000B700F50FAF90BF1F0302018DBF2F0302017918
:1000C700BF370302014DBF3B02804FBF3D02803562
:1000D700BF3E028018BF3F0280030201A275100FC6
:1000E700E4F511F508F50975126C0201A275826134
:1000F700120385751078751100750801750900756B
:1001070012610201A27582621203857508027509E0
:100117000075A0807512620201A2E50D601175825B
:1001270064120385750807750900751264800F75D9
:1001370082631203857508037509007512637510CC
:10014700077511008055E50D6011758264120385EE
:10015700750807750900751264800F7582651203AB
:100167008575080475090075126575100775110006
:10017700802975826612038575080575090075A0C3
:1001870020751266801575826712038575080675D6
:100197000900751267751078751100743CB50E0665
:1001A700E4B50F028002800685128212038574026D
:1001B700B50A06E4B50B02800D7405B50A06E4B569
:1001C7000B0280028015E508B50A07E509B50B02A1
:1001D7008009750808750900751275851013851152
:1001E7001490000A12040DAE82AF83C3E50E9EE59C
:1001F7000F64808FF063F08095F04003020270AEC9
:1002070008E509FF30E7030202F4C374089E74800F
:100217008FF063F08095F050030202F4EEF5F024BE
:100227000B83F582E5F0240D83F583E473464CF4E4
:100237005258F45E646A0202020202020202027566
:10024700A0A00202F475A0800202F475A0C0020209
:10025700F475A0600202F475A0200202F475A040B4
:100267000202F475A0800202F4C3E510950EE511B1
:100277006480850FF063F08095F040030202EF85FC
:10028700101385111490001412040DAE82AF83C3AE
:10029700E50E9EE50F64808FF063F08095F04003D4
:1002A7000202EFAE08E509FF30E7030202F4C37468
:1002B700089E74808FF063F08095F050030202F47B
:1002C700EEF5F0240B83F582E5F0240D83F583E446
:1002D70073EAEAF4EAEAF4EAEAEA0202020202024A
:1002E70002020275A0008005E4F50EF50F85080AE5
:1002F70085090BD0D0D000D001D002D003D004D0D4
:1003070005D006D007D083D082D0F0D0E0D02032FD
:100317001203B912035312035F1203FFD2AF120382
:100327008E80FB7E007F007CFF7D00EC24FFFAEDD2
:1003370034FFFB8A048B05EA4B70F00EBE00010FF9
:10034700C3EE9433EF6480948040DC227589207576
:100357008DFD759850D28E22E50C701385990CC2CD
:100367009875A0A012032A75A00012032A80E974C9
:1003770078B50CE4758279120385750C00228582A5
:100387009910990280FB22C29985990CC2987478BA
:10039700B50C06758279020385746DB50C0280056C
:1003A7007468B50C04750D0022746CB50C03750DDB
:1003B70001227590FF75A00075A00012032A120391
:1003C7002A75A0E012032A75A08012032A12032AB5
:1003D70012032A12032A75A04012032A12032A12B3
:1003E700032A12032A75A02012032A12032A1203D2
:1003F7002A12032A75A00022438901758CEE758A9B
:0604070000D28CD2A922F4
:06004000E478FFF6D8FD94
:10001E007900E94400601B7A0090042E780175A0E7
:10002E0000E493F2A308B8000205A0D9F4DAF27541
:02003E00A0FF21
:10040D00E5828513F0A4C582C0F08514F0A4D0F068
:0D041D0025F0C5838513F0A42583F5832207
:100046007800E84400600A790175A000E4F309D855
:10005600FC7800E84400600C7900900001E4F0A30D
:04006600D8FCD9FAEF
:0D00110075812012042AE582600302000EB2
:04042A0075820022B5
:00000001FF
