:040000000200313297
:03000B000200DA16
:0100130032BA
:01001B0032B2
:030023000200B622
:03002B00020302CB
:10008A00750800E4F50AF50BF50CF50DF50EF50FFC
:10009A0075100FF511751201F513751432F51575F2
:0C00AA001601F517751832F51902002E2A
:03002E0002056068
:1000B600C0E0C0D0309813859909C2987479B50903
:1000C60002800CE4F50CF50D80051099028000D035
:1000D600D0D0E032C021C0E0C0F0C082C083C007EB
:1000E600C006C005C004C003C002C001C000C0D025
:1000F60075D000758CEE758A00AE0AAF0B74012EB2
:10010600F50AE43FF50B7414B51A07E4B51B0302B0
:1001160002E585102285112390001E1208B6AE82D4
:10012600AF83C3E50A9EE50B64808FF063F080958C
:10013600F0400302022FE51B30E7030202E5C37419
:1001460009951A7480851BF063F08095F0500302C0
:1001560002E5E51A240B83F582E51A240E83F5835E
:10016600E4737C92A5B6C7D8E9FC051A0101010122
:10017600010101010202D281C280D2A6300002D260
:10018600A1C2A7C2A4D2B6D2B70202E5D281C2806A
:10019600C2A62000030202E5C2B6D2A70202E5D239
:1001A60081C280C2A62000030202E5D2A70202E5B0
:1001B600D281D280C2A62000030202E5D2A70202A3
:1001C600E5C281D280D2A62000030202E5D2A402B3
:1001D60002E5C281C280D2A62000030202E5D2A4B3
:1001E6000202E5C281C280D2A62000030202E5C255
:1001F600B7D2A40202E5C281D280D2A60202E5D21B
:1002060081C280C2A6D2B6D2B72000030202E5D2CE
:10021600A70202E5C281C280D2A6D2B6D2B720001A
:10022600030202E5D2A40202E5C3E510950AE51130
:100236006480850BF063F08095F040030202E08550
:10024600102285112390003C1208B6AE82AF83C3FC
:10025600E50A9EE50B64808FF063F08095F040031D
:100266000202E0E51B30E7030202E5C37409951AB2
:100276007480851BF063F08095F050030202E5E57B
:100286001A240B83F582E51A240E83F583E473A9F9
:10029600BEB2B2B2B2CFB2B2B202020202020202DF
:1002A600020202300006C2A1D2B6D2B7C281C28013
:1002B600C2A6C2A7C2A48027D281C280C2A630002D
:1002C6001EC2B6D2A7C2A48016C281C280D2A6C25E
:1002D600A730000BC2B7D2A48005E4F50AF50BD00F
:1002E600D0D000D001D002D003D004D005D006D0A3
:1002F60007D083D082D0F0D0E0D02132C021C0E038
:10030600C0F0C082C083C007C006C005C004C003D9
:10031600C002C001C000C0D075D000C2CFAE0EAFC3
:100326000F74012EF50EE43FF50FAE0CAF0D740100
:100336002EF50CE43FF50DB296E51645176012AEA4
:1003460016AF17EE24FFF516EF34FFF517D28280AD
:1003560024E51845196012AE18AF19EE24FFF518FA
:10036600EF34FFF519C282800C85121685131785A6
:10037600141885151920000302052DC3E50E94E80F
:10038600E50F6480948340030204587402B51A068C
:10039600E4B51B0280247403B51A06E4B51B02807B
:1003A6003F7404B51A06E4B51B02805A7405B51AE3
:1003B60006E4B51B02807502052D7522047523001F
:1003C600850E82850F83120920E5828583F045F02C
:1003D6006007D2B6D2B702052DC2B6D2B702052D36
:1003E600752204752300850E82850F83120920E588
:1003F600828583F045F06007D2B6D2B702052DC2DA
:10040600B6D2B702052D752204752300850E8285A6
:100416000F83120920E5828583F045F06007D2B686
:10042600D2B702052DD2B6C2B702052D75220475C4
:100436002300850E82850F83120920E5828583F0CD
:1004460045F06007D2B6D2B702052DD2B6C2B702C2
:10045600052DC3E50E94D0E50F6480948740030212
:1004660005287402B51A06E4B51B0280247403B588
:100476001A06E4B51B02803E7404B51A06E4B51BE1
:100486000280577405B51A06E4B51B028070020592
:100496002D75220A752300850E82850F8312092089
:1004A600E5828583F045F06007D2B6D2B702052D06
:1004B600C2B6D2B7807175220A752300850E828571
:1004C6000F83120920E5828583F045F06006D2B6D7
:1004D600D2B78053C2B6D2B7804D75220A752300B3
:1004E600850E82850F83120920E5828583F045F00B
:1004F6006006D2B6D2B7802FD2B6C2B7802975228F
:100506000A752300850E82850F83120920E58285F0
:1005160083F045F06006D2B6D2B7800BD2B6C2B72A
:100526008005E4F50EF50FC374A0950E748F850F44
:10053600F063F08095F05005E4F50EF50FD0D0D0BD
:1005460000D001D002D003D004D005D006D007D009
:1005560083D082D0F0D0E0D02132751A14751B00FA
:10056600C28775C88075CA1875CBFE85CACC85CB7F
:10057600CDD2ADD2CA1207C6D2AF12059675080102
:1005860012061C12062FD2AC1207D412065880F897
:10059600D297D294D293D292D290D291C2B6C2B707
:1005A600C287C296C282C2A0C2A1C2A2C2A3C2A769
:1005B600C2A4D2B6D2B7D2A0C2A1D2A2C2A3C2004E
:1005C600D282C281C280D2A61205F31205F3C2817D
:1005D600D280C2A61205F31205F3D281C280C2A64A
:1005E6001205F31205F3C281C280C2A6227E007FE5
:1005F600007CFF7D00EC24FFFAED34FFFB8A048BC0
:1006060005EA4B70F00EBE00010FC3EE9433EF64A3
:1006160080948040DC22758920758DFD759850D2B6
:100626008E228582993099FD227479B50902801946
:10063600751A14751B001205F31205F375827812EC
:100646000628859909C29880E01205F375826D0225
:100656000628AF09BF61028044BF62028056BF63AD
:10066600028068BF6402807ABF65030206FFBF6628
:1006760003020716BF670302072DBF6C02800FBF78
:100686006E03020740BF7503020753020766751023
:100696001EE4F511F51AF51BC2A10207AC7510147C
:1006A600751100751A01751B002000030207ACD2F4
:1006B600A10207AC75100A751100751A02751B00A8
:1006C6002000030207ACD2A10207AC751007751112
:1006D60000751A03751B002000030207ACD2A102A5
:1006E60007AC751007751100751A07751B002000F9
:1006F600030207ACD2A10207AC751007751100758D
:100706001A04751B002000030207ACD2A10207AC35
:1007160075100A751100751A05751B002000030275
:1007260007ACD2A10207AC751014751100751A0634
:10073600751B00300070D2A1806C75100F7511000A
:10074600751A08751B0030005DD2A1805975100F0F
:10075600751100751A09751B0030004AD2A1804632
:10076600C2ACE4F50CF50D751A14F51BF50AF50B7C
:10077600C281C280C2A6C2A7C2A475827812062808
:10078600000000007479B509028019751A14751BEA
:10079600001205F31205F375827812062885990969
:1007A600C29880E0D2ACC374A0950C748F850DF00E
:1007B60063F08095F05008E4F50CF50D750971228B
:1007C600438901758CEE758A00D28CD2A9222093BA
:1007D6004F20934C1205F3051E7403B51E03751EB8
:1007E60000E4B51E02800E7401B51E028016740266
:1007F600B51E2D801E75826C120628D2A2D2A312B7
:1008060005F3801C75826D120628D2A2C2A31205BA
:10081600F3800D758268120628C2A2D2A31205F3D0
:100826002094371205F3740A2512F512E43513F5F0
:10083600137432C39512F514E49513F515C3743287
:10084600951274808513F063F08095F0500C751244
:10085600017513007514327515002092051205F303
:10086600B2002097281205F31205F31205F320971C
:100876001CC2A0C281C280C2A6C2A2C2A3C2A1C219
:100886008CC2A91205F31205F3D28780FE20900DC3
:10089600D2A7C2A4D281C280C2A6C28C2220910D48
:1008A600C2A7D2A4C281C280D2A6C28C22D28C2276
:06006000E478FFF6D8FD74
:10003E007900E94400601B7A0090095A780175A096
:10004E0000E493F2A308B8000205A0D9F4DAF27521
:02005E00A0FF01
:1008B600E5828522F0A4C582C0F08523F0A4D0F09D
:1008C60025F0C5838522F0A42583F58322E52245FC
:1008D6002360467A01E52225E0F522E5233340121E
:1008E600F523E5829522E583952340030A80E6C336
:1008F600E52313F523E52213F522C3E5829522F5B8
:10090600F0E58395234005F58385F082C3E523133F
:0A091600F523E52213F522DAE122B1
:100066007800E84400600A790175A000E4F309D835
:10007600FC7800E84400600C7900900001E4F0A3ED
:04008600D8FCD9FACF
:0D003100758123120956E582600302002E3E
:10092000C2D5E58330E70DD2D5E4C39582F582E4E4
:100930009583F583E52330E70BE4C39522F522E4A4
:100940009523F5231208D330D50BE4C39582F582A5
:0A095000E49583F5832275820022EE
:00000001FF
