:040000000200313297
:03000B000200DF11
:0100130032BA
:01001B0032B2
:030023000200B622
:03002B0002030AC3
:20008A00750800E4F50AF50BF50CF50DF50EF50F75100FF511751201F513751432F5157588
:0C00AA001601F517751832F51902002E2A
:03002E0002056860
:2000B600C0E0C0D0309818859909C2987479B509028005E4F50CF50D300009D2A18005103F
:2000D60099028000D0D0D0E032C021C0E0C0F0C082C083C007C006C005C004C003C002C05C
:2000F60001C000C0D075D000758CEE758A00AE0AAF0B74012EF50AE43FF50B7414B51A07D1
:20011600E4B51B030202ED85102285112390001E120873AE82AF83C3E50A9EE50B64808F61
:20013600F063F08095F04003020237E51B30E7030202EDC37409951A7480851BF063F08092
:2001560095F050030202EDE51A240B83F582E51A240E83F583E473819AADBECFE0F1040DDE
:200176002201010101010101020202D281C280D2A6C2A7C2A4D2B6D2B72000030202EDD267
:20019600A10202EDD281C280C2A62000030202EDC2B6D2A70202EDD281C280C2A6200003A4
:2001B6000202EDD2A70202EDD281D280C2A62000030202EDD2A70202EDC281D280D2A62016
:2001D60000030202EDD2A40202EDC281C280D2A62000030202EDD2A40202EDC281C280D2DF
:2001F600A62000030202EDC2B7D2A40202EDC281D280D2A60202EDD281C280C2A6D2B6D2FA
:20021600B72000030202EDD2A70202EDC281C280D2A6D2B6D2B72000030202EDD2A40202F7
:20023600EDC3E510950AE5116480850BF063F08095F040030202E885102285112390003C47
:20025600120873AE82AF83C3E50A9EE50B64808FF063F08095F040030202E8E51B30E70355
:200276000202EDC37409951A7480851BF063F08095F050030202EDE51A240B83F582E51A41
:20029600240E83F583E473B1C6BABABABAD7BABABA02020202020202020202300006C2A1B3
:2002B600D2B6D2B7C281C280C2A6C2A7C2A48027D281C280C2A630001EC2B6D2A7C2A48092
:2002D60016C281C280D2A6C2A730000BC2B7D2A48005E4F50AF50BD0D0D000D001D002D017
:2002F60003D004D005D006D007D083D082D0F0D0E0D02132C021C0E0C0F0C082C083C007DA
:20031600C006C005C004C003C002C001C000C0D075D000C2CFAE0EAF0F74012EF50EE43FC9
:20033600F50FAE0CAF0D74012EF50CE43FF50DB296E51645176012AE16AF17EE24FFF516AD
:20035600EF34FFF517D2828024E51845196012AE18AF19EE24FFF518EF34FFF519C28280F4
:200376000C851216851317851418851519200003020535C3E50E94E8E50F648094834003D8
:200396000204607402B51A06E4B51B0280247403B51A06E4B51B02803F7404B51A06E4B595
:2003B6001B02805A7405B51A06E4B51B028075020535752204752300850E82850F83120882
:2003D600DDE5828583F045F06007D2B6D2B7020535C2B6D2B7020535752204752300850EDF
:2003F60082850F831208DDE5828583F045F06007D2B6D2B7020535C2B6D2B702053575223B
:2004160004752300850E82850F831208DDE5828583F045F06007D2B6D2B7020535D2B6C275
:20043600B7020535752204752300850E82850F831208DDE5828583F045F06007D2B6D2B751
:20045600020535D2B6C2B7020535C3E50E94D0E50F6480948740030205307402B51A06E457
:20047600B51B0280247403B51A06E4B51B02803E7404B51A06E4B51B0280577405B51A0608
:20049600E4B51B02807002053575220A752300850E82850F831208DDE5828583F045F06014
:2004B60007D2B6D2B7020535C2B6D2B7807175220A752300850E82850F831208DDE5828598
:2004D60083F045F06006D2B6D2B78053C2B6D2B7804D75220A752300850E82850F831208C7
:2004F600DDE5828583F045F06006D2B6D2B7802FD2B6C2B7802975220A752300850E8285D2
:200516000F831208DDE5828583F045F06006D2B6D2B7800BD2B6C2B78005E4F50EF50FC372
:2005360074A0950E748F850FF063F08095F05005E4F50EF50FD0D0D000D001D002D003D019
:2005560004D005D006D007D083D082D0F0D0E0D02132751A14751B00C28775C88075CA1837
:2005760075CBFE85CACC85CBCDD2ADD2CA12078BD2AF12059E750801120624120637D2AC73
:2005960012079912066080F8D297D294D293D292D290D291C2B6C2B7C287C296C282C2A00E
:2005B600C2A1C2A2C2A3C2A7C2A4D2B6D2B7D2A0C2A1D2A2C2A3C200D282C281C280D2A658
:2005D6001205FB1205FBC281D280C2A61205FB1205FBD281C280C2A61205FB1205FBC2815C
:2005F600C280C2A6227E007F007CFF7D00EC24FFFAED34FFFB8A048B05EA4B70F00EBE0081
:20061600010FC3EE9433EF6480948040DC22758920758DFD759850D28E228582993099FDB5
:20063600227479B509028019751A14751B001205FB1205FB758278120630859909C298802D
:20065600E01205FB75826D020630AF09BF61028048BF62028052BF6302805CBF6402806654
:20067600BF65028070BF6602807ABF6703020708BF6C028015BF6E03020716BF71030207A6
:2006960032BF750302072402077175101EE4F511F51AF51BC2A10207717510147511007517
:2006B6001A01751B0002077175100A751100751A02751B00020771751007751100751A03AB
:2006D600751B00020771751007751100751A07751B00020771751007751100751A04751B13
:2006F6000002077175100A751100751A05751B008069751014751100751A06751B00805B29
:2007160075100F751100751A08751B00804D75100F751100751A09751B00803FC2ACE4F56D
:200736000CF50D751A14F51BF50AF50BC281C280C2A6C2A7C2A47509007479B50902801963
:20075600751A14751B001205FB1205FB758278120630859909C29880E0D2ACC374A0950C9E
:20077600748F850DF063F08095F05008E4F50CF50D75097122438901758CEE758A00D28C1D
:20079600D2A9222093471205FB209341051E74FD251E5003751E00E4B51E02800E7401B578
:2007B6001E0280137402B51E24801875826C120630D2A2D2A3801675826D120630D2A2C25F
:2007D600A3800A758268120630C2A2D2A32094371205FB740A2512F512E43513F5137432C3
:2007F600C39512F514E49513F515C37432951274808513F063F08095F0500C75120175138A
:20081600007514327515002092051205FBB2002097281205FB1205FB1205FB20971CC2A0B8
:20083600C281C280C2A6C2A2C2A3C2A1C28CC2A91205FB1205FBD28780FE20900DD2A7C2DD
:1D085600A4D281C280C2A6C28C2220910DC2A7D2A4C281C280D2A6C28C22D28C22EA
:06006000E478FFF6D8FD74
:20003E007900E94400601B7A00900917780175A000E493F2A308B8000205A0D9F4DAF27548
:02005E00A0FF01
:1D087300E5828522F0A4C582C0F08523F0A4D0F025F0C5838522F0A42583F58322F9
:20089000E522452360467A01E52225E0F522E523334012F523E5829522E583952340030A65
:2008B00080E6C3E52313F523E52213F522C3E5829522F5F0E58395234005F58385F082C33E
:0D08D000E52313F523E52213F522DAE122DA
:200066007800E84400600A790175A000E4F309D8FC7800E84400600C7900900001E4F0A398
:04008600D8FCD9FACF
:0D003100758123120913E582600302002E81
:2008DD00C2D5E58330E70DD2D5E4C39582F582E49583F583E52330E70BE4C39522F522E405
:1608FD009523F52312089030D50BE4C39582F582E49583F5832290
:0409130075820022C7
:00000001FF
