:0400000002001132B7
:03000B0002007A76
:10006A00750800E4F50AF50B750C0FF50D02000E84
:03000E000202C229
:10007A00C021C0E0C0F0C082C083C007C006C0056E
:10008A00C004C003C002C001C000C0D075D0007552
:10009A008CEE758A00AE0AAF0B74012EF50AE43FA6
:1000AA00F50BB2967414B50E07E4B50F0302026994
:1000BA00850C13850D1490001E120528AE82AF839D
:1000CA00C3E50A9EE50B64808FF063F08095F040EB
:1000DA00030201C1E50F30E703020269C3740995FF
:1000EA000E7480850FF063F08095F0500302026968
:1000FA00E50E240B83F582E50E240E83F583E47363
:10010A001E304152637485969FB0010101010101BD
:10011A0001010101B281C280B2A6300002D2A1C29D
:10012A00A7C2A4020269B281C280C2A62000030249
:10013A000269D2A7020269B281C280C2A620000364
:10014A00020269D2A7020269B281B280C2A6200065
:10015A0003020269D2A7020269C281B280B2A62052
:10016A000003020269D2A4020269C281C280B2A655
:10017A00200003020269D2A4020269C281C280B2CB
:10018A00A6200003020269D2A4020269C281B280D7
:10019A00C2A6020269B281C280C2A620000302027C
:1001AA0069D2A7020269C281C280B2A620000302F4
:1001BA000269D2A4020269C3E50C950AE50D6480BE
:1001CA00850BF063F08095F04003020264850C13FE
:1001DA00850D1490003C120528AE82AF83C3E50A50
:1001EA009EE50B64808FF063F08095F04003020275
:1001FA0064E50F30E703020269C37409950E74803F
:10020A00850FF063F08095F05003020269E50E2431
:10021A000B83F582E50E240E83F583E4733B4C4091
:10022A0040404058404040020202020202020202DA
:10023A0002300002C2A1C281C280C2A6C2A7C2A461
:10024A00801DB281C280C2A6D2A7C2A48011C28177
:10025A00C280B2A6C2A7D2A48005E4F50AF50B2093
:10026A009734E50860300510E4B510020511C3742F
:10027A0032951074808511F063F08095F0501CD28D
:10028A0087C2A0C281C280C2A6C2A2C2A3C2A1C2A0
:10029A008C3097FD8005E4F510F511D0D0D000D050
:1002AA0001D002D003D004D005D006D007D083D025
:1002BA0082D0F0D0E0D02132750E14750F00C287BB
:1002CA001204C3D2AF1202E375080112036B1203C0
:1002DA00801204D11203C380F875800075A000D281
:1002EA0097D294D293D292C287C296C2A0C2A1C216
:1002FA00A2C2A3C2A7C2A4D2A0C2A1D2A2C2A3C2AE
:10030A0000D281D280D2A6120342120342C281C213
:10031A0080D2A6120342120342C281D280C2A6121E
:10032A000342120342D281C280C2A61203421203BE
:10033A0042C281C280C2A6227E007F007CFF7D006D
:10034A00EC24FFFAED34FFFB8A048B05EA4B70F0CC
:10035A000EBE00010FC3EE9433EF6480948040DC3C
:10036A0022758920758DFD759850D28E22858299C5
:10037A0010990280FB227479B5090280337582785C
:10038A00120377750E14750F00859909120342122C
:10039A000342120342120342C37410950A74A785DA
:1003AA000BF063F08095F050CDE4F50AF50B80C6AA
:1003BA0012034275826D020377859909C298746C9B
:1003CA00B5090D750C14E4F50DF50EF50FC2A12251
:1003DA007461B50913750C14750D00750E01750F4E
:1003EA000020000122D2A1227462B50913750C0AF9
:1003FA00750D00750E02750F0020000122D2A12290
:10040A007463B50913750C07750D00750E03750F26
:10041A000020000122D2A1227464B50913750C07C9
:10042A00750D00750E07750F0020000122D2A1225A
:10043A007465B50913750C07750D00750E04750FF3
:10044A000020000122D2A1227466B50912750C0A95
:10045A00750D00750E05750F0030005CD2A122746F
:10046A0067B50912750C0F750D00750E06750F002C
:10047A00300045D2A1227475B50912750C08750DA4
:10048A0000750E09750F0030002ED2A122746EB5C8
:10049A000912750C08750D00750E08750F003000ED
:1004AA0017D2A122C374B0950A7484850BF063F045
:1004BA008095F0500302038022438901758CEE7502
:1004CA008A00D28CD2A92220934905127403B5124C
:1004DA0003751200E4B51202800E7401B51202808F
:1004EA00167402B5122D801E75826C120377D2A281
:1004FA00D2A3120342801C75826D120377D2A2C264
:10050A00A3120342800D758268120377C2A2D2A396
:0E051A00120342A294209205120342B2002264
:06004000E478FFF6D8FD94
:10001E007900E94400601B7A00900549780175A0CB
:10002E0000E493F2A308B8000205A0D9F4DAF27541
:02003E00A0FF21
:10052800E5828513F0A4C582C0F08514F0A4D0F04C
:0D05380025F0C5838513F0A42583F58322EB
:100046007800E84400600A790175A000E4F309D855
:10005600FC7800E84400600C7900900001E4F0A30D
:04006600D8FCD9FAEF
:0D001100758121120545E582600302000E95
:040545007582002299
:00000001FF
