:0400000002001132B7
:03000B0002009060
:20006A00750800E4F50AF50BF50CF50D750E0FF50F751008F511F512F513751408F515F54B
:06008A0016F51702000E3E
:03000E0002059A4E
:20009000C021C0E0C0F0C082C083C007C006C005C004C003C002C001C000C0D075D0007534
:2000B0008CEE758A00AE0AAF0B74012EF50AE43FF50BAE0CAF0D74012EF50CE43FF50DB28F
:2000D000967414B51807E4B5190302057D850E1D850F1E90001E120834AE82AF83C3E50A73
:2000F0009EE50B64808FF063F08095F04003020452E51930E70302057DC37409951874808F
:200110008519F063F08095F0500302057DE518240B83F582E518240E83F583E4734191E0B9
:200130002F7ECD1C6BB40301010102020203030304E51445156016AE14AF15EE24FFF51478
:20015000EF34FFF515D281C280D2A68028E51645176016AE16AF17EE24FFF516EF34FFF524
:2001700017C281C280C2A6800C851014851115851216851317300002D2A1C2A7C2A40205B4
:200190007DE51445156016AE14AF15EE24FFF514EF34FFF515D281C280C2A68028E5164558
:2001B000176016AE16AF17EE24FFF516EF34FFF517C281C280C2A6800C851014851115857C
:2001D000121685131720000302057DD2A702057DE51445156016AE14AF15EE24FFF514EF3C
:2001F00034FFF515D281C280C2A68028E51645176016AE16AF17EE24FFF516EF34FFF5176C
:20021000C281C280C2A6800C85101485111585121685131720000302057DD2A702057DE51C
:200230001445156016AE14AF15EE24FFF514EF34FFF515D281D280C2A68028E51645176092
:2002500016AE16AF17EE24FFF516EF34FFF517C281C280C2A6800C8510148511158512162A
:2002700085131720000302057DD2A702057DE51445156016AE14AF15EE24FFF514EF34FF90
:20029000F515C281D280D2A68028E51645176016AE16AF17EE24FFF516EF34FFF517C281AB
:2002B000C280C2A6800C85101485111585121685131720000302057DD2A402057DE5144569
:2002D000156016AE14AF15EE24FFF514EF34FFF515C281C280D2A68028E51645176016AE97
:2002F00016AF17EE24FFF516EF34FFF517C281C280C2A6800C8510148511158512168513B6
:200310001720000302057DD2A402057DE51445156016AE14AF15EE24FFF514EF34FFF51580
:20033000C281C280D2A68028E51645176016AE16AF17EE24FFF516EF34FFF517C281C280E2
:20035000C2A6800C85101485111585121685131720000302057DD2A402057DE51445156095
:2003700017AE14AF15EE24FFF514EF34FFF515C281D280C2A602057DE51645176017AE1677
:20039000AF17EE24FFF516EF34FFF517C281C280C2A602057D851014851115851216851333
:2003B0001702057DE51445156016AE14AF15EE24FFF514EF34FFF515D281C280C2A6802858
:2003D000E51645176016AE16AF17EE24FFF516EF34FFF517C281C280C2A6800C85101485C5
:2003F000111585121685131720000302057DD2A702057DE51445156016AE14AF15EE24FF67
:20041000F514EF34FFF515C281C280D2A68028E51645176016AE16AF17EE24FFF516EF345C
:20043000FFF517C281C280C2A6800C85101485111585121685131720000302057DD2A40259
:20045000057DC3E50E950AE50F6480850BF063F08095F04003020578850E1D850F1E900051
:200470003C120834AE82AF83C3E50A9EE50B64808FF063F08095F04003020578E51930E7AE
:200490000302057DC37409951874808519F063F08095F0500302057DE518240B83F582E51C
:2004B00018240E83F583E473CCDED1D1D1D12BD1D1D104040404040405040404300002C2E7
:2004D000A1C281C280C2A6C2A7C2A402057DE51445156016AE14AF15EE24FFF514EF34FFA0
:2004F000F515D281C280C2A68028E51645176016AE16AF17EE24FFF516EF34FFF517C28159
:20051000C280C2A6800C851014851115851216851317300002D2A7C2A48052E5144515604F
:2005300016AE14AF15EE24FFF514EF34FFF515C281C280D2A68028E51645176016AE16AFE4
:2005500017EE24FFF516EF34FFF517C281C280C2A6800C851014851115851216851317C23F
:20057000A7300009D2A48005E4F50AF50BD0D0D000D001D002D003D004D005D006D007D0A1
:2005900083D082D0F0D0E0D02132751814751900C28712076FD2AF1205BB750801120643B7
:2005B00012065812077D12068580F875800075A000D297D294D293D292C287C296C2A0C2A9
:2005D000A1C2A2C2A3C2A7C2A4D2A0C2A1D2A2C2A3C200D281D280D2A612061A12061AC21F
:2005F00081C280D2A612061A12061AC281D280C2A612061A12061AD281C280C2A612061ABC
:2006100012061AC281C280C2A6227E007F007CFF7D00EC24FFFAED34FFFB8A048B05EA4B1D
:2006300070F00EBE00010FC3EE9433EF6480948040DC22758920758DFD759850D28E228550
:20065000829910990280FB227479B50902801D75181475190012061A12061A12061A758221
:200670007812064F12061A85990980DC12061A75826D02064F859909C298746CB5090D7548
:200690000E1EE4F50FF518F519C2A1227461B50913750E14750F0075180175190020000198
:2006B00022D2A1227462B50913750E0A750F0075180275190020000122D2A1227463B50931
:2006D00013750E07750F0075180375190020000122D2A1227464B50913750E07750F0075C7
:2006F000180775190020000122D2A1227465B50912750E07750F0075180475190030005E01
:20071000D2A1227466B50912750E0A750F00751805751900300047D2A1227467B50912752D
:200730000E14750F00751806751900300030D2A1227475B50912750E0F750F007518097513
:200750001900300019D2A122746EB50911750E0F750F00751808751900300002D2A122439E
:200770008901758CEE758A00D28CD2A92220934F12061A209349051C7403B51C03751C00C9
:20079000E4B51C02800E7401B51C0280167402B51C2D801E75826C12064FD2A2D2A3120649
:2007B0001A801C75826D12064FD2A2C2A312061A800D75826812064FC2A2D2A312061A201F
:2007D000943712061A74022510F510E43511F5117408C39510F512E49511F513C3740895DB
:2007F0001074808511F063F08095F0500C75100275110075120675130020920512061AB2EE
:200810000020971F12061AC2A0C281C280C2A6C2A2C2A3C2A1C28CC2A912061A12061AD256
:040830008780FE229D
:06004000E478FFF6D8FD94
:20001E007900E94400601B7A00900855780175A000E493F2A308B8000205A0D9F4DAF2752B
:02003E00A0FF21
:1D083400E582851DF0A4C582C0F0851EF0A4D0F025F0C583851DF0A42583F5832247
:200046007800E84400600A790175A000E4F309D8FC7800E84400600C7900900001E4F0A3B8
:04006600D8FCD9FAEF
:0D001100758121120851E582600302000E86
:04085100758200228A
:00000001FF
