:0400000002001132B7
:03000B0002007779
:0D006A00E4F509F50A750B0FF50C02000E08
:03000E00020229C2
:10007700C020C0E0C0F0C082C083C007C006C00572
:10008700C004C003C002C001C000C0D075D0007555
:100097008CEE758A00AE09AF0A74012EF509E43FAC
:1000A700F50AB2967414B50D07E4B50E0302020CF7
:1000B700850B0F850C1090001E120379AE82AF835B
:1000C700C3E5099EE50A64808FF063F08095F040F0
:1000D70003020175E50E30E70302020CC3740995AC
:1000E7000D7480850EF063F08095F0500302020CCA
:1000F700E50D240B83F582E50D240E83F583E47368
:100107001B242D363F48515A636C0101010101013F
:1001170001010101D281C280D2A602020CD281C2A2
:1001270080C2A602020CD281C280C2A602020CD2F1
:1001370081D280C2A602020CC281D280D2A602025C
:100147000CC281C280D2A602020CC281C280D2A692
:1001570002020CC281D280C2A602020CD281C280E6
:10016700C2A602020CC281C280D2A602020CC3E55B
:100177000B9509E50C6480850AF063F08095F040E3
:1001870003020207850B0F850C1090003C120379C0
:10019700AE82AF83C3E5099EE50A64808FF063F002
:1001A7008095F04003020207E50E30E70302020CD8
:1001B700C37409950D7480850EF063F08095F05037
:1001C7000302020CE50D240B83F582E50D240E8353
:1001D700F583E473EFF7EFEFEFEFFFEFEFEF0101D9
:1001E7000101010101010101C281C280C2A680157E
:1001F700D281C280C2A6800DC281C280D2A68005EC
:10020700E4F509F50AD0D0D000D001D002D003D050
:1002170004D005D006D007D083D082D0F0D0E0D06C
:10022700203275908075800075A000750D14750ECD
:1002370000C28712036BD2AFD2A012024F1202B7CD
:100247001202CC1202EF80FBD297C2A0C287C296DD
:10025700D281D280D2A612028E12028EC281C280B1
:10026700D2A612028E12028EC281D280C2A61202BA
:100277008E12028ED281C280C2A612028E12028E06
:10028700C281C280C2A6227E007F007CFF7D00EC77
:1002970024FFFAED34FFFB8A048B05EA4B70F00E5E
:1002A700BE00010FC3EE9433EF6480948040DC22DC
:1002B700758920758DFD759850D28E22858299108B
:1002C700990280FB227479B508012275827812029F
:1002D700C3750D14750E0085990812028E12028ED1
:1002E70012028E12028E80DD859908C298746CB551
:1002F7000806E4F50DF50E227461B50807750D01C2
:10030700750E00227462B50807750D02750E00227E
:100317007463B50807750D03750E00227464B5087C
:1003270007750D07750E00227465B50807750D046E
:10033700750E00227466B50807750D05750E002247
:100347007467B50807750D06750E00227475B50834
:1003570007750D08750E0022746EB50806750D0930
:10036700750E0022438901758CEE758A00D28CD2F6
:02037700A922B9
:06004000E478FFF6D8FD94
:10001E007900E94400601B7A0090039A780175A07C
:10002E0000E493F2A308B8000205A0D9F4DAF27541
:02003E00A0FF21
:10037900E582850FF0A4C582C0F08510F0A4D0F005
:0D03890025F0C583850FF0A42583F58322A0
:100046007800E84400600A790175A000E4F309D855
:10005600FC7800E84400600C7900900001E4F0A30D
:04006600D8FCD9FAEF
:0D001100758120120396E582600302000E47
:04039600758200224A
:00000001FF
