:0400000002001132B7
:03000B0002008070
:10006A00E4F508F509F50A750B01F50CF50D750EA1
:06007A0014F50F02000E58
:03000E00020204E7
:10008000C020C0E0C0F0C082C083C007C006C00569
:10009000C004C003C002C001C000C0D075D000754C
:1000A0008C4B758AFDAE0CAF0D74012EF50CE43F40
:1000B000F50DC3E50E950CE50F6480850DF063F03A
:1000C0008095F05003020164E50930E7030201E77F
:1000D000C37407950874808509F063F08095F0502B
:1000E000030201E7E508240B83F582E508240C836D
:1000F000F583E47304101C2834404C5801010101BD
:100100000101010175826C12028075A0A00201E755
:1001100075826112028075A0800201E77582621209
:10012000028075A0800201E775826312028075A0CB
:10013000C00201E775826512028075A0600201E7C6
:1001400075826612028075A0200201E7758267122F
:10015000028075A0200201E775826412028075A0FA
:10016000400201E7C3E50E950CE50F6480850DF0B4
:1001700063F08095F040030201E2E50E25E0FEE524
:100180000F33FFC3E50C9EE50D64808FF063F080B4
:1001900095F040030201E2E50930E7030201E7C3FD
:1001A0007407950874808509F063F08095F050031A
:1001B0000201E7E508240B83F582E508240C83F5AA
:1001C00083E473D3D3D8D3D3DDD3D30101010101A9
:1001D00001010175A000800F75A080800A75A02024
:1001E0008005E4F50CF50DD0D0D000D001D002D0C0
:1001F00003D004D005D006D007D083D082D0F0D071
:10020000E0D020327590FFE4F5A0F508F509120260
:10021000B475A000120274E50A701385990AC29899
:1002200075A0A012024B75A00012024B80E97478F1
:10023000B50AE4758279120280750A001203BAD2F7
:10024000A9D2AF1202F012028980F87E007F007CF2
:10025000FF7D00EC24FFFAED34FFFB8A048B05EAF6
:100260004B70F00EBE00010FC3EE9433EF64809428
:100270008040DC22758920758DFD759850D28E22C4
:1002800085829910990280FB22C29985990AC298A9
:100290007478B50A06758279020280746DB50A0217
:1002A00080057468B50A04750B0022746CB50A03E6
:1002B000750B012275A00012024B12024B75A0E0D3
:1002C00012024B75A08012024B12024B12024B120B
:1002D000024B75A04012024B12024B12024B12024B
:1002E0004B75A02012024B12024B12024B02024B22
:1002F000AF90BF1F030203ADBF2F0302039ABF37A6
:1003000003020375BF3B028047BF3D02802FBF3E03
:10031000028017BF3F0280012275826C1202807535
:100320000E0AE4F50FF508F50922758261120280C4
:10033000750E78750F0075080175090022758262C7
:10034000120280750802750900750E05750F0022EE
:10035000E50B600E7582641202807508077509004E
:10036000800C758263120280750803750900750E92
:100370000A750F0022E50B600E758264120280750B
:100380000807750900800C758265120280750804E3
:10039000750900750E0A750F0022758266120280BB
:1003A000750805750900750E05750F00227508069C
:1003B000750900750E78750F0022438901758C4B05
:0803C000758AFDD28CD2A9223E
:06004000E478FFF6D8FD94
:10001E007900E94400601B7A009003CC780175A04A
:10002E0000E493F2A308B8000205A0D9F4DAF27541
:02003E00A0FF21
:100046007800E84400600A790175A000E4F309D855
:10005600FC7800E84400600C7900900001E4F0A30D
:04006600D8FCD9FAEF
:0D0011007581201203C8E582600302000E15
:0403C8007582002218
:00000001FF
