:0400000002001132B7
:03000B000200925E
:10006A00E4F508F509F50AF50BF50CF50D750E0F13
:10007A00F50F75106C75110FF512F513751401C291
:08008A0000C201C20202000ED7
:03000E0002043AAF
:10009200C021C0E0C0F0C082C083C007C006C00556
:1000A200C004C003C002C001C000C0D075D000753A
:1000B2008CEE758A00AE0CAF0D74012EF50CE43F88
:1000C200F50D300103020209AF90BF1F030201D4F4
:1000D200BF2F030201B9BF33030201ECBF37030292
:1000E2000187BF3B02806BBF3D02804ABF3E028058
:1000F2002CBF3F028003020207AE11AF12EE24FFB3
:10010200F511EF34FFF512C201E511451260030249
:100112000209D20275110F751200020209D201758D
:1001220082611204A575A080750801750900751019
:1001320061D200020209D2017582621204A5750E13
:1001420003750F00750802750900751062C200027E
:100152000209E5146013D2017582641204A57508C0
:10016200077509007510648011D20175826312044B
:10017200A5750803750900751063750E03750F00E8
:10018200C200020209E5146013D2017582641204EE
:10019200A57508077509007510648011D201758272
:1001A200651204A5750804750900751065750E03BE
:1001B200750F00C2008050D2017582661204A575C7
:1001C2000805750900751066750E03750F00C200EB
:1001D2008035D2017582671204A575A020750806C4
:1001E200750900751067D200801DD20175826412F4
:1001F20004A5750807750900751064750E03750F5F
:1002020000C2008002C2017428B50C06E4B50D02DA
:1002120080028008C2018510821204A5850E158510
:100222000F1690000A120502AE82AF83C3E50C9E40
:10023200E50D64808FF063F08095F040030202C008
:10024200AE08E509FF30E703020350C374099E7448
:10025200808FF063F08095F05003020350EEF5F0CA
:10026200240B83F582E5F0240E83F583E473848AFC
:1002720090969CA2A8AEB4BA020202020202020244
:10028200020275A0A002035075A08002035075A05F
:100292008002035075A0C002035075A06002035093
:1002A20075A02002035075A02002035075A04002E1
:1002B200035075A08002035075A020020350C3E5CD
:1002C2000E950CE50F6480850DF063F08095F0408B
:1002D2000302034B850E15850F16900014120502BA
:1002E200AE82AF83C3E50C9EE50D64808FF063F0B0
:1002F2008095F0400302034BAE08E509FF30E703A7
:10030200020350C374099E74808FF063F08095F0ED
:100312005003020350EEF5F0240B83F582E5F0243E
:100322000E83F583E4733C413C3C3C3C463C3C3C04
:100332000303030303030303030375A000800F7584
:10034200A080800A75A0208005E4F50CF50D20023E
:10035200030203D23001030203D23000647401B5F8
:100362000A0614B50B02800D7408B50A06E4B50B33
:10037200028002801A20011775080875090075822B
:100382006E1204A5750E0A750F0075106E80417409
:1003920006B50A06E4B50B02800D7409B50A06E437
:1003A200B50B028002802920012675080975090013
:1003B2007582751204A5750E0A750F007510758089
:1003C2000FC200E4F508F50975106C750E0FF50FF4
:1003D20075150D751600850C82850D8312056CE569
:1003E200828583F045F0702DC299859913C2987465
:1003F20078B513087582791204A58019746DB51346
:100402000280057468B513057514008008746CB514
:10041200130375140185080A85090BD0D0D000D0CA
:1004220001D002D003D004D005D006D007D083D0AB
:1004320082D0F0D0E0D021321204AE120473120442
:100442007F1204F4D2AF80FE7E007F007CFF7D002D
:10045200EC24FFFAED34FFFB8A048B05EA4B70F0C3
:100462000EBE00010FC3EE9433EF6480948040DC33
:1004720022758920758DFD759850D28E22E51370F4
:1004820013859913C29875A0A012044A75A0001290
:10049200044A80E97478B513E47582791204A5756B
:1004A20013002285829910990280FB227590FF75B4
:1004B200A00075A00012044A12044A75A0E01204BA
:1004C2004A75A08012044A12044A12044A12044ACB
:1004D20075A04012044A12044A12044A12044A75D0
:1004E200A02012044A12044A12044A12044A75A0B5
:1004F2000022438901758CEE758A00D28CD2A92222
:06004000E478FFF6D8FD94
:10001E007900E94400601B7A009005A6780175A06E
:10002E0000E493F2A308B8000205A0D9F4DAF27541
:02003E00A0FF21
:10050200E5828515F0A4C582C0F08516F0A4D0F06E
:1005120025F0C5838515F0A42583F58322E51545CD
:100522001660467A01E51525E0F515E51633401209
:10053200F516E5829515E583951640030A80E6C314
:10054200E51613F516E51513F515C3E5829515F5B0
:10055200F0E58395164005F58385F082C3E5161311
:0A056200F516E51513F515DAE12290
:100046007800E84400600A790175A000E4F309D855
:10005600FC7800E84400600C7900900001E4F0A30D
:04006600D8FCD9FAEF
:0D0011007581211205A2E582600302000E38
:10056C00C2D5E58330E70DD2D5E4C39582F582E49C
:10057C009583F583E51630E70BE4C39515F515E483
:10058C009516F51612051F30D50BE4C39582F5822E
:0A059C00E49583F5832275820022A6
:00000001FF
