:0400000002001132B7
:03000B0002008B65
:20006A00E4F508F509F50AF50BF50CF50D750E0FF50F75106CF511751201C200C2010200F9
:01008A000E67
:03000E00020347A3
:20008B00C021C0E0C0F0C082C083C007C006C005C004C003C002C001C000C0D075D0007539
:2000AB008CEE758A00AE0CAF0D74012EF50CE43FF50D3001030201E3AF90BF1F030201AE92
:2000CB00BF2F03020193BF33030201C6BF3703020161BF3B02804CBF3D02802BBF3E028083
:2000EB000DBF3F0280030201E1C2010201E3D20175826112040F75A0807508017509007582
:20010B001061D2000201E3D20175826212040F750E03750F00750802750900751062C200AA
:20012B000201E3E5126013D20175826412040F7508077509007510648011D2017582631256
:20014B00040F750803750900751063750E03750F00C2000201E3E5126013D201758264123F
:20016B00040F7508077509007510648011D20175826512040F750804750900751065750E25
:20018B0003750F00C2008050D20175826612040F750805750900751066750E03750F00C22F
:2001AB00008035D20175826712040F75A020750806750900751067D200801DD2017582646A
:2001CB0012040F750807750900751064750E03750F00C2008002C2017428B50C06E4B50DEA
:2001EB000280028008C20185108212040F850E13850F1490000A1204DAAE82AF83C3E50CFB
:20020B009EE50D64808FF063F08095F04003020294AE08E509FF30E703020324C374099EE9
:20022B0074808FF063F08095F05003020324EEF5F0240B83F582E5F0240E83F583E47324F3
:20024B005E646A70767C82888E0302020202020202020275A08002032475A0800203247567
:20026B00A0C002032475A06002032475A02002032475A02002032475A04002032475A0807D
:20028B0002032475A020020324C3E50E950CE50F6480850DF063F08095F0400302031F85D7
:2002AB000E13850F149000141204DAAE82AF83C3E50C9EE50D64808FF063F08095F0400332
:2002CB0002031FAE08E509FF30E703020324C374099E74808FF063F08095F05003020324E4
:2002EB00EEF5F0240B83F582E5F0240E83F583E4732415101010101A1010100303030303CC
:20030B00030303030375A000800F75A080800A75A0208005E4F50CF50D85080A85090BD05F
:20032B00D0D000D001D002D003D004D005D006D007D083D082D0F0D0E0D0213212039A124D
:20034B0003DD1203E912044CD2AF20010E1204181203712001F412045A80EF3001EC1203C8
:20036B007112041880E47E007F007CFF7D00EC24FFFAED34FFFB8A048B05EA4B70F00EBED7
:20038B0000010FC3EE9433EF6480948040DC227590FF75A00012037112037175A0E0120376
:2003AB007175A08012037112037112037112037175A0401203711203711203711203717532
:2003CB00A02012037112037112037112037175A00022758920758DFD759850D28E22E51111
:2003EB007013859911C29875A0A012037175A00012037180E97478B511E475827912040F7C
:20040B007511002285829910990280FB22C299309803859911C2987478B511087582791256
:20042B00040F8019746DB5110280057468B511057512008008746CB511037512017511006A
:20044B0022438901758CEE758A00D28CD2A9223000557401B50A0614B50B02800D7408B566
:20046B000A06E4B50B0280028013200110750808750900750E0A750F0075106E227406B51D
:20048B000A06E4B50B02800C7409B50A06E4B50B02800122200137750809750900750E0A9B
:2004AB00750F0075107522C200E4F508F509750E0FF50F75106C75A0A01203711203711296
:0F04CB00037175A00012037112037102037122F5
:06004000E478FFF6D8FD94
:20001E007900E94400601B7A009004FB780175A000E493F2A308B8000205A0D9F4DAF27589
:02003E00A0FF21
:1D04DA00E5828513F0A4C582C0F08514F0A4D0F025F0C5838513F0A42583F58322C3
:200046007800E84400600A790175A000E4F309D8FC7800E84400600C7900900001E4F0A3B8
:04006600D8FCD9FAEF
:0D0011007581211204F7E582600302000EE4
:0404F70075820022E8
:00000001FF
